:020000040001F9
:10C00000686B002005C301000DC301000FC30100D0
:10C0100011C3010013C3010015C30100000000009B
:10C0200000000000000000000000000017C3010035
:10C0300019C30100000000001BC301001DC3010063
:10C040001FC301001FC3010039D101001FC301003C
:10C050001FC301001FC3010035CA01001FC3010037
:10C060001FC3010021D101001FC301001FC3010034
:10C070001FC301001FC301001FC301001FC3010034
:10C080001FC30100E5CD01001FC301001FC3010054
:10C0900019CE01001FC3010021CE01001FC3010002
:10C0A0001FC301001FC301001FC301001FC3010004
:10C0B000BDCD01001FC30100000000000000000012
:10C0C0001FC30100D1CD01001FC301001FC3010028
:10C0D0001FC30100EDCB01001FC3010000000000E1
:10C0E0000000000000000000000000000000000050
:10C0F0000000000000000000000000000000000040
:10C10000000000000000000000000000000000002F
:10C11000000000000000000000000000000000001F
:10C12000000000000000000000000000000000000F
:10C1300000000000000000000000000000000000FF
:10C1400000000000000000000000000000000000EF
:10C1500000000000000000000000000000000000DF
:10C1600000000000000000000000000000000000CF
:10C1700000000000000000000000000000000000BF
:10C1800000000000000000000000000000000000AF
:10C19000000000000000000000000000000000009F
:10C1A000000000000000000000000000000000008F
:10C1B000000000000000000000000000000000007F
:10C1C000000000000000000000000000000000006F
:10C1D000000000000000000000000000000000005F
:10C1E000000000000000000000000000000000004F
:10C1F000000000000000000000000000000000003F
:10C20000DFF80CD000F0B4FA004800473D0002000F
:10C21000686B0020401E00BF00BF00BF00BF00BF12
:10C2200000BF00BF00BF00BF00BF00BF00BF00BF16
:10C2300000BF00BF00BF00BF00BF00BF00BF00BF06
:10C2400000BF00BF00BF00BF00BF00BF00BF00BFF6
:10C2500000BF00BF00BF00BF00BF00BF00BF00BFE6
:10C2600000BF00BF00BF00BF00BF00BF00BF00BFD6
:10C2700000BF00BF00BF00BF00BF00BF00BF00BFC6
:10C2800000BF00BF00BFC5D170470000401E00BF07
:10C2900000BF00BF00BF00BF00BF00BF00BF00BFA6
:10C2A00000BF00BF00BF00BF00BF00BF00BF00BF96
:10C2B00000BF00BF00BF00BF00BF00BF00BF00BF86
:10C2C00000BF00BF00BF00BF00BF00BF00BF00BF76
:10C2D00000BF00BF00BF00BF00BF00BF00BF00BF66
:10C2E00000BF00BF00BF00BF00BF00BF00BF00BF56
:10C2F00000BF00BF00BF00BF00BF00BF00BFC5D16F
:10C30000704700000648804706480047FEE7FEE702
:10C31000FEE7FEE7FEE7FEE7FEE7FEE7FEE7FEE7F5
:10C320009DCE010001C2010040EA01039B0703D03A
:10C3300009E008C9121F08C0042AFAD203E011F864
:10C34000013B00F8013B521EF9D27047D2B201E026
:10C3500000F8012B491EFBD270470022F6E710B50A
:10C3600013460A4604461946FFF7F0FF204610BD63
:10C3700030B50B46014600202022012409E021FAB5
:10C3800002F59D4205D303FA02F5491B04FA02F5B2
:10C390002844151EA2F10102F1DC30BD2DE9F05F49
:10C3A0000546002092469B46884606468146402424
:10C3B0001BE0284641464746224600F0FAF953461C
:10C3C0005A46C01A914110D311461846224600F031
:10C3D000E1F92D1A67EB01084F46224601200021A2
:10C3E00000F0D8F917EB00094E41201EA4F101041A
:10C3F000DFDC484631462A464346BDE8F09F2DE93A
:10C40000FE4F804681EA0300C00F0C46009021F0E9
:10C41000004123F00045B8EB0200A94105D2404697
:10C42000214690461C460B46024623F0004010432E
:10C4300047D0270DC7F30A00C3F30A510290401AF0
:10C44000019040286BDAC3F3130040F4801B00987E
:10C45000924620B10023D2EB030A63EB0B0B019849
:10C460005946C0F14002504600F094F906460D4688
:10C4700050465946019A00F0ACF910EB08006141B2
:10C48000002487EA115284EAE7731A4340D0009AE5
:10C4900062B3019A012A4FEA075215DC001B61EBD7
:10C4A00002014FF0004202EA0752CDE90042001CAF
:10C4B00041F5801132462B4600F0ACF903B0BDE8DF
:10C4C000F08F40462146F9E7001B61EB0201001C9A
:10C4D00041F5801300185B412018A2F5001747EBC7
:10C4E000030140EAD570B6196D4111E06D084FEABD
:10C4F000360645EAC0754FEA0752001B61EB0201A0
:10C50000001C41F5801149084FEA300000195141E3
:10C5100032462B4603B0BDE8F04F00F06CB90098EE
:10C52000012240000023D0EB020263EBE07300988D
:10C5300021464FEAE074B8EB000061EB0401E9E743
:10C5400083F000435BE781F0004158E72DE9FE4F9F
:10C5500081EA030404F0004421F0004100944FF00C
:10C56000000B23F0004350EA01045ED052EA0304BA
:10C570005BD0C3F30A54C1F30A552C44A4F2F3343C
:10C580000194A0FB0254C1F3130141F48011C3F3E1
:10C59000130343F4801301FB024400FB034E840A9F
:10C5A000970A44EA815447EA8357A4FB0768029537
:10C5B0008D0A05FB07854FEA932C04FB0C542705D5
:10C5C000029D4FEA065847EA1637B5EB08056EEBB1
:10C5D000070C870E920E47EA811742EA8312A7FBE7
:10C5E0000201B6EB0B0164EB00042B0D43EA0C33A4
:10C5F0005E1844EB1C50DA465146E7FB0201C5F3D6
:10C6000013044FEA0B3343EA14534FEA0432019CFC
:10C6100043EA0603A4F10C040294009CCDE900B4A3
:10C6200000F0F8F803B0BDE8F08F00200146F9E70C
:10C630002DE9F04D81EA030404F0004B21F00045A0
:10C6400014464FF0000A23F0004150EA050220D0C2
:10C6500054EA01021DD0C5F30A570246C5F313037D
:10C66000C1F31300C1F30A5640F4801543F480135C
:10C67000A7EB0608101BD64608F2FD3873EB050041
:10C6800002D308F1010801E092185B41B8F1000FF4
:10C6900003DA00200146BDE8F08D00204FF4801140
:10C6A000064684460EE0171B73EB050705D3121BE5
:10C6B00063EB050306434CEA010C49084FEA3000DE
:10C6C00092185B4150EA0107EDD152EA030012D003
:10C6D00082EA040083EA0501084305D0101BAB4140
:10C6E00006D20122002306E000224FF0004302E0C0
:10C6F0006FF0010253101AEB06004CEB085110EBDF
:10C700000A0041EB0B01BDE8F04D00F074B8C1F335
:10C710000A52C1F3130140F2FF3341F480119A42EF
:10C7200002DA00200146704740F233439A42A2F2F7
:10C73000334202DC524200F03CB800F02BB800005B
:10C7400030B5041E71F1000404DB4FF00044404298
:10C7500064EB0101141E73F1000405DB1C464FF06D
:10C760000043524263EB0403994208BF904230BD3C
:10C77000064C074D06E0E06840F0010394E807002E
:10C7800098471034AC42F6D3FFF73EFD2074020008
:10C7900040740200202A04DB203A00FA02F1002053
:10C7A00070479140C2F1200320FA03F319439040EF
:10C7B0007047202A04DB203A21FA02F0002170475A
:10C7C00021FA02F3D040C2F12002914008431946F9
:10C7D0007047202A06DBCB17203A41FA02F043EAE1
:10C7E000E07306E041FA02F3D040C2F1200291402A
:10C7F00008431946704710B5141E73F1000408DA97
:10C80000401C41F1000192185B411A4301D120F014
:10C81000010010BD2DE9F04D92469B4611B1B1FAD1
:10C8200081F202E0B0FA80F220329046FFF7B2FFC8
:10C8300004460F4640EA0A0041EA0B0153465A46B5
:10C84000084313D0114653EA010019D0C8F1400241
:10C850005046FFF7AEFF05460E4650465946424643
:10C86000FFF798FF084305D0012004E02046394631
:10C87000BDE8F08D0020054346EAE0762C433743BF
:10C880000A986305E40AA0EB08000022FD0A44EAC6
:10C8900047540A3002D500200146E9E70105101986
:10C8A0006941DDE9084500196941BDE8F04DA2E79D
:10C8B00070B57F247F257F2600221146104600F0A8
:10C8C000C7FA1B480088032812DA194908780023A0
:10C8D0007F22114600F0CAFA19220321154803F0FD
:10C8E00035F913480088401C11490880502070BD5C
:10C8F00011480088002812DD0F4908787F230022A4
:10C90000194600F0B3FA192203210A4803F01EF970
:10C9100009480088401E084908805020E7E70020A9
:10C920000349088002200449088000BFDFE70000B7
:10C930009E200020B0270020A020002010B53948FC
:10C940000088032868DA38480088FF2829DC354841
:10C95000008820B1012809D0022815D10DE0324904
:10C9600008780022114600F073FA0DE02E48017895
:10C970000022104600F06CFA06E02B4802780021F5
:10C98000084600F065FA00BF00BF27480088401C39
:10C990002549088019220321244803F0D7F80120F3
:10C9A00010BD23480088002829DD1E48008820B1DA
:10C9B000012809D0022815D10DE01D490878002270
:10C9C000114600F045FA0DE01948017800221046A2
:10C9D00000F03EFA06E0164802780021084600F012
:10C9E00037FA00BF00BF12480088401E1049088077
:10C9F000192203210D4803F0A9F80120D0E7FF20F8
:10CA00000B49088000200849088006480088401C1F
:10CA100080B20449088002E000200249088000BF7B
:10CA2000BEE70000982000209A200020B0270020B8
:10CA30009C2000202DE9F04F87B00027BA464FF424
:10CA4000807006900125002412E0069804F00CF88E
:10CA500040B100BF60480068284018B1069803F054
:10CA6000F5FF2F436D000698001D80B20690641CF0
:10CA7000082CEAD34FF4BE7003F0F6FF48B14FF430
:10CA8000BE7003F0E3FF47F0004700BF5348006863
:10CA90008246F8B2F8B1012500241AE005EA070041
:10CAA000A8B100BF4E4850F82400C0F30420064649
:10CAB00000BF4B4850F82400C0F301408046204698
:10CAC00002F09EFB814641463046C84700BF6D00DC
:10CAD000641C082CE2D307F00040002879D04FF006
:10CAE000000B00200590401E049000BF4FF0000B8B
:10CAF000002457E03B48005D0390039820F0C006F7
:10CB000038480057401C00284BD00120B040049901
:10CB10000840002845D003984FEA9019304602F0AB
:10CB200077FB804602F06CFB0290029810B9B9F1D5
:10CB3000030F35D1012000FA06F5B9F1030F02D138
:10CB400005982843059000BF274850F82600C0F3F9
:10CB5000014800BF05EA0A0010B1B8F1020F05D084
:10CB600005EA0A00D8B9B8F1030F18D1B9F1030FDB
:10CB70000FD1B8F1020F01D1032000E00220019093
:10CB80003046019903F042FF0BF1010000F0FF0B6A
:10CB900000BF029818B149463046029A904700BF3C
:10CBA00000BF641C042CA5D3BBF1000F0DD000BF47
:10CBB0000A4909680846504503D14FF0000B03E0CD
:10CBC00007E082460599049100BFBBF1000F8DD1AB
:10CBD00000BF07B0BDE8F08F0463004010050050AF
:10CBE00010650040D8290020000700502DE9F041D1
:10CBF000002500264FF48A71514803F076FF20B3D8
:10CC00004FF48A714E4803F077FF4E48C068E0B198
:10CC100000BF4D4800684B49C968884206D1494861
:10CC2000C0684849C98800EB810401E04548C468F0
:10CC30002146434803F069FF4248407920F0040050
:10CC4000001D40494871264600BF4FF482713C48A0
:10CC500003F04BFF98B34FF48271394803F04CFF57
:10CC60003848806858B300BF3748083800683549ED
:10CC70008968884206D1334880683249C98800EB08
:10CC8000810401E02F48846821462D4803F037FFD6
:10CC90002C48407920F00200801C2A49487108463F
:10CCA0004079C0F3C00058B10846407900F0010057
:10CCB00030B90846407920F00800487101E001E0F1
:10CCC000254600BF1F48407900F0010040B905B972
:10CCD0002EB31C48C28831460368284698472DE089
:10CCE00018484079C0F34000C8B116484079C0F3F5
:10CCF0008000A0B11348407920F00200114948712A
:10CD00000846407920F00400487108464079C0F395
:10CD1000C00028B10846407920F0080048710DE0B5
:10CD200000BF0948006804460548D0F838050746A2
:10CD30000448C2882146036838469847BDE8F08118
:10CD400000500240D82A00204055024000F01F0247
:10CD500001219140024A430942F823107047000024
:10CD600080E200E000F01F020121914042099200A0
:10CD700002F1E022C2F800117047000000F01F022B
:10CD800001219140024A430942F8231070470000F4
:10CD900000E200E010B5002807DA4A07140E054A41
:10CDA00000F00F031B1FD45403E04A07130E024A7E
:10CDB000135410BD18ED00E000E400E010B5024986
:10CDC000024802F0A5FF10BDE82A002000C0014083
:10CDD00010B50249024802F09BFF10BDF02A002066
:10CDE0000010024010B500200949086000210948E0
:10CDF000C0F84411C0F84811C0F84C110020054992
:10CE0000C1F8000102493C39086004F0A5FC10BDDE
:10CE1000401101400010014010B504F09FFB10BD0F
:10CE200070B50A48006868B1084800688047044641
:10CE300000BF254625B100BF284600F067FF00BFB0
:10CE400000BF01E002F012FF70BD00005C21002075
:10CE5000054B587019709A701871D9705A71D87141
:10CE600099711A7270470000B027002030B500EBAE
:10CE70004004054D2C44617000EB40042A5500EB42
:10CE800040042C44A37030BDB02700200148024963
:10CE9000086070470090D0037C21002010B502F09C
:10CEA000C3FB28B18E480088C0F304208D49086078
:10CEB00002F00EFC10B18C488C49486702F020FC4F
:10CEC00030B18748E0380068C0F3423088490860D4
:10CED00002F040FC28B18748006820F08070854946
:10CEE000086002F04FFC48B10020834908604FF011
:10CEF0008041C1F810017E49091F086002F06CFCF6
:10CF000018B103207A496431086002F07DFC68B1F1
:10CF100005207A49086001207849783108600020AE
:10CF20007649083108603F20091F086002F084FC40
:10CF3000002855D06A48E0300068714908606848A8
:10CF4000E4300068091D08606548E8300068091D84
:10CF500008606348EC300068091D08606048F030E4
:10CF60000068091D08605E48F4300068091D08600B
:10CF70005B48F83000686249203108605848FC304E
:10CF80000068091D08605F480068091D08605D4869
:10CF9000001D0068091D08605A4808300068091D16
:10CFA000086058480C300068091D0860554810306A
:10CFB0000068534940310860524814300068091D28
:10CFC0000860504818300068091D08604D481C3042
:10CFD0000068091D08604B4820300068091D086082
:10CFE00002F0F8FA30B13E48CC38006800F04F004B
:10CFF0004549086002F042FB40B14448006800F037
:10D00000010018B16FF001004049086039487438D8
:10D01000006840F4700037497439086000BF00BFF1
:10D0200000BFBFF34F8F00BF00BF00BF00BF00BFF6
:10D0300000BFBFF36F8F00BF00BF00BF3448006860
:10D0400000F0004028B93248001D006800F00040A0
:10D05000F0B301202F49086000BF2F480068002866
:10D06000FBD015202A49086000BF2B480068002823
:10D07000FBD015212648001D016000BF264800682E
:10D080000028FBD000202349086000BF2248006828
:10D090000028FBD000BF00BF00BF00BF00BFBFF330
:10D0A0004F8F00BF00BF00BF1248F038006800F487
:10D0B000E0601A490843001D0E49F039086000BFBE
:10D0C00000BF00BFBFF34F8F00BF00BF00BF00E035
:10D0D00002E000BF00BFFDE7FFF7D8FE10BD000073
:10D0E00024030010403501400DF0ADBA00C00740E8
:10D0F0003C050040FCED00E00C01004010560040F3
:10D1000020C5004024040010E40E0040000400404C
:10D110000012001004E5014000E401400000FA059F
:10D1200010B504220249034802F03FFE10BD000082
:10D13000F82A00200090004010B50448007F10B18C
:10D1400004F0C8FD01E004F015FD10BDE029002049
:10D150000FB4054B10B503A9044A029800F0CAF8B1
:10D1600010BC5DF814FB00007DF901005421002083
:10D1700002E008C8121F08C1002AFAD170477047A0
:10D18000002001E001C1121F002AFBD170470000FE
:10D190002DE9FF5FDDE90220010DDDF838B0024323
:10D1A00018D044F61050A1F2FF3141430D140F98EE
:10D1B000012820D0A5EB0B00401C5FEA000A4FF0CD
:10D1C0000004474EDFF81C91A046504616D5CAF120
:10D1D000000728E00F98012443A2012808D000216D
:10D1E00000980F9BC0E90021C0E90243BDE8FF9F02
:10D1F0006FEA0B01F4E7CBF10000DEE7074612E02F
:10D20000F80707D02246334640464946FFF79EF9C5
:10D21000804689462246334610461946FFF796F95E
:10D2200004460E467F10002FEAD1DDE90201BAF173
:10D23000000F42464B4602DAFFF788F901E0FFF79C
:10D24000F7F904460E460022284BFFF779FA03D877
:10D250004FF0FF30014607E00022254B20463146C3
:10D26000FFF7CDF8FFF753FA102409E0002C0ADB92
:10D270000A220023FFF792F8019B30321A55641EF0
:10D2800050EA0102F2D1641C019AC4F11103144462
:10D290000F9A012A03D0012208430DD10AE0084366
:10D2A00004D000204FF0110B0F9080E7A3EB0B058B
:10D2B0006D1E0DE05B4504DD4FF0000205F1010538
:10D2C00004E003DA4FF00002A5F10105002AECD0DA
:10D2D00000980F99C0E90231C0E9004586E70000D7
:10D2E000000024400000F03F300000000000F04348
:10D2F0000000E03F2DE9FF4F95B09B46894606466A
:10D3000000250FE2252877D100242746F84A01217D
:10D31000059400E0044316F8013F203B01FA03F0B6
:10D320001042F7D130782A2811D06FF02F033078CF
:10D33000A0F13002092A16D8059A44F0020402EB43
:10D34000820203EB42021044761C0590EFE759F885
:10D35000042B0592002A03DA504244F4005405904D
:10D3600044F00204761C30782E2816D116F8010FEE
:10D3700044F004042A280DD06FF02F023078A0F179
:10D380003003092B09D807EB870302EB4303C718C7
:10D39000761CF3E759F8047B761C30786C280FD0A4
:10D3A00006DC4C2817D068280DD06A2814D104E078
:10D3B000742810D07A280FD10DE044F400140AE04C
:10D3C00044F4801401E044F440147278824202D1A3
:10D3D00004F58014761C761C307866280BD013DC9C
:10D3E000582877D009DC002875D04528F6D0462883
:10D3F000F4D047281AD19DE118E0632835D064287D
:10D4000079D0652812D195E1702873D008DC67289F
:10D41000F1D069286FD06E280DD06F2806D1B5E005
:10D4200073282CD0752875D0782874D05A4617994F
:10D4300090476D1C75E1C4F30250022809D00328FF
:10D440000DD0D9F8001004280DD00D6009F10409A1
:10D4500067E1D9F80010EA17C1E90052F6E7D9F8F8
:10D4600000100D80F2E70D70F0E719F8041B8DF83D
:10D47000001000208DF80100EA46012003E059F871
:10D4800004AB4FF0FF3061074FF0000102D40DE014
:10D4900008F101018846B9420FDA8045F8DB1AF835
:10D4A00008100029F4D108E008F101018846814202
:10D4B000FADB1AF808100029F6D105985B46A0EBB4
:10D4C000080721463846179A00F094FA284400EBE2
:10D4D000080507E04DE029E10DE01AF8010B5A4676
:10D4E00017999047B8F10108F7D25B4621463846B4
:10D4F000179A13E142E00A220092C4F302524FF05D
:10D50000000A022A08D059F804CB032A4FEAEC712A
:10D510000AD00DE029E02AE009F1070121F0070215
:10D52000F2E802C1914609E00FFA8CFC4FEAEC7177
:10D53000042A03D14FFA8CFC4FEAEC71002907DA78
:10D540000A460021DCF1000C61EB02012D2202E011
:10D55000220504D52B228DF80420012203E0E207E6
:10D5600001D02022F7E7904659E00A2102E010227C
:10D570000DE010214FF0000A00910BE010224FF057
:10D58000000A44F004040827009203E008224FF048
:10D59000000A0092C4F30252022A05D059F804CBC3
:10D5A0000021032A08D009E009F1070121F0070250
:10D5B000F2E802C1914605E01FFA8CFC042A01D171
:10D5C0000CF0FF0C4FF00008220728D5702806D079
:10D5D000009B83F0100353EA0A0305D00EE04022BB
:10D5E0008DF80420012208E05CEA010206D0302216
:10D5F0008DF804208DF8050002229046009B83F0F0
:10D60000080353EA0A030AD15CEA010201D1620766
:10D6100005D530228DF804204FF001087F1E5828D0
:10D6200004D034A003900EA802900DE036A0F9E7D4
:10D6300053466046009AFEF7B1FE84460398825C2A
:10D640000298401E029002705CEA0100F0D102983C
:10D6500006A9081A00F1200A600702D524F48034D4
:10D6600000E00127574502DDA7EB0A0000E000209B
:10D6700000EB0A01009005984144401A0590E00330
:10D6800006D45B462146179A059800F0B3F9054485
:10D69000002706E001A85A46C05D179990476D1C07
:10D6A0007F1C4745F6DBE0030CD55B462146179A05
:10D6B000059800F09FF9054404E030205A46179978
:10D6C00090476D1C0099481E00900029F5DC08E089
:10D6D000029802995A460078491C0291179990477E
:10D6E0006D1CBAF10001AAF1010AF1DC65E100004C
:10D6F0000928010030313233343536373839616228
:10D7000063646566000000003031323334353637EB
:10D7100038394142434445460000000000F058F9C2
:10D720000544761C307800287FF4ECAD19B028460B
:10D73000BDE8F08F620700D4062709F1070222F046
:10D74000070CFCE80223E14603F000485FEA080CFE
:10D7500002D00FF2702C0DE05FEA045C02D50FF2EC
:10D76000682C07E05FEAC47C02D00FF2602C01E075
:10D77000AFF2700C4FF0FF3823F00043CDF850C0EB
:10D7800065280CD006DC452809D046281DD047283E
:10D790003DD13DE0662818D067287ED138E00021D1
:10D7A000112F01DB112000E0781CCDE9000106A952
:10D7B0000EA8FFF7EDFCDDE90F010E9A03910021A1
:10D7C000009207F1010A04914DE04FF000400097EC
:10D7D000CDE9011006A90EA8FFF7DAFCDDE90F027A
:10D7E00003920E9B11990022DDF80CA00093049285
:10D7F00011B9791C00EB010AB7EB0A0004D4C0F19F
:10D80000FF3007F1010A0490AAEB0700019044E001
:10D81000012F00DA01270021112F01DD112000E086
:10D820003846CDE9000106A90EA8FFF7B1FCDDE9F5
:10D830000F010E9A0391002104910092BA4621072C
:10D840000CD40399514500DA8A46BAF1010F05DD7F
:10D85000009AAAF10101515C302908D0B84202DADD
:10D8600010F1040F06DA0121CDE9011015E0AAF14B
:10D870000101E9E7002805DC049901440491AAEBC1
:10D88000000102E0411C514500DD8A460499401A1E
:10D89000401C01904FF000400290200704D40198F2
:10D8A000504501DBCDF8048000208DF84F00029830
:10D8B0000DF14F07B0F1004F25D02B200E900298AC
:10D8C0004FF0020800280CDA404202902D200E9002
:10D8D00007E00A210298FEF74BFD3031029007F86D
:10D8E000011DB8F10001A8F10108F2DC029800283E
:10D8F000EFD1791E0E980870307800F0200040F0CB
:10D90000450007F8020D12A8C01B00F10708149883
:10D91000007800B1012000EB0A01019801EBE071F1
:10D9200005984144401A401E0590E00306D45B462A
:10D930002146179A059800F05DF805441498007880
:10D9400018B15A46179990476D1CE00324D55B46E1
:10D950002146179A059800F04DF805441CE00498FC
:10D96000002807DBDDE90301884203DD0098405C05
:10D97000179901E0179930205A469047049805F10D
:10D980000105401C04900198401E019004D12E20F6
:10D990005A46179990476D1CBAF10001AAF1010A85
:10D9A000DDDC05E017F8010B5A46179990476D1C0E
:10D9B000B8F10001A8F10108F4DC5B462146179A92
:10D9C0000598ABE62D0000002B00000020000000B1
:10D9D0002DE9F041044600251E461746880404D46C
:10D9E00005E039462020B0476D1C641EF9D5284655
:10D9F000BDE8F0812DE9F041044600251E46904621
:10DA0000C80301D5302700E02027880404D505E0AD
:10DA100041463846B0476D1C641EF9D52846BDE81E
:10DA2000F0812DE9FC4104468846164600253788DA
:10DA300000203080606B68B1616B08783B463246ED
:10DA4000414603F005FC054600BF15B12846BDE878
:10DA5000FC8100BF206B58B13B4632464146206BEB
:10DA600003F0CBFE054600BF0DB12846EFE700BF2F
:10DA700094F82E0060B194F82E003B4632464146A1
:10DA800002F0D4F9054600BF0DB12846DFE700BF1C
:10DA900094F82D0050B13A463146404600F083FEDE
:10DAA000054600BF0DB12846D1E700BFA07850B1B0
:10DAB0003A463146404600F0C7FA054600BF0DB170
:10DAC0002846C4E700BFE07860B1E17848B23B4641
:10DAD0003246414601F01CFF054600BF0DB1284605
:10DAE000B5E700BF606868B1616891F900003B4626
:10DAF0003246414603F04CFF054600BF0DB12846B3
:10DB0000A5E700BF208900280EDD4346062202213A
:10DB100004F10800CDE9006704F006FA054600BFED
:10DB20000DB1284693E700BF208A00280EDD43464A
:10DB30000722032104F11000CDE9006704F0F4F995
:10DB4000054600BF0DB1284681E700BF208B0028A5
:10DB50000EDD43461522142104F11800CDE90067BB
:10DB600004F0E2F9054600BF0DB128466FE700BF9B
:10DB7000206A58B13B4632464146206A01F00BFC10
:10DB8000054600BF0DB1284661E700BF606A58B185
:10DB90003B4632464146606A02F0CAFA054600BF7B
:10DBA0000DB1284653E700BF94F82C0000280BDD88
:10DBB0003B4632464146204603F065FB054600BF22
:10DBC0000DB1284643E700BF207858B13B463246A6
:10DBD0004146204602F0E7FA054600BF0DB128464F
:10DBE00035E700BF284632E70146C87800F0040058
:10DBF00008B9072070470020FCE710B50122022178
:10DC0000002000F0C9FF044600BF1CB1072C01D062
:10DC1000204610BD00BF07220221012000F0BCFFFA
:10DC2000044600BF1CB1072C01D02046F1E700BF1D
:10DC30000A220021084600F0AFFF044600BF1CB1D5
:10DC4000072C01D02046E4E700BF0020E1E70000F8
:10DC500030B5A7B0382119A8FEF77FFB02208DF858
:10DC6000640000208DF8660005208DF867003821DB
:10DC70000BA8FEF772FB0120ADF83C001049109193
:10DC8000242102A8FEF769FB01208DF81400402032
:10DC90000690B420079000200A4B02AA0BA900901E
:10DCA00019A800F0A3FA044600BF254625B100BF1D
:10DCB000284600F02BF800BF00BF27B030BD0000A1
:10DCC00082200020390C020000BF00BF00BF00BF4F
:10DCD00000BFBFF34F8F00BF00BF00BF09480068FF
:10DCE00000F4E06008490843001D0649086000BFD1
:10DCF00000BF00BFBFF34F8F00BF00BF00BF00BF1A
:10DD000000BFFDE70CED00E00000FA053EB504465B
:10DD1000002000900190029002946A46002144F293
:10DD20000100FFF7D1FF3EBD70B504460D46204609
:10DD300001F0D7FD28B12946204601F0C1FD0020A1
:10DD400070BD0520FCE7034609B90E20704712B1EB
:10DD5000501E104008B10920F8E71960501E988045
:10DD600000209860D86000BFF0E770B504460D460B
:10DD7000204601F0B6FDA188884205D829462046F4
:10DD800001F0BDFD002070BD0420FCE710B5034686
:10DD90000C4600BF0B48006808B9082010BD00BF42
:10DDA0000AB90720FAE70BB90720F7E71868007CE3
:10DDB00008B10820F2E71968002008744C744A6121
:10DDC00000BFEBE7342100202DE9F04180460E46EC
:10DDD00014461F46204600F0030109B9012100E066
:10DDE000002111B90720BDE8F08124B900201D49A8
:10DDF00008600720F7E703F0A1F81B48076003203D
:10DE00001A49087017480460183400250DE01549B8
:10DE1000096801EBC5000021017041708670446003
:10DE200006EB460104EBC1046D1C032DEFDB002063
:10DE30000F4908600F4908700F4908701420FEF759
:10DE400085FF06211420FEF7A5FF1420FEF78AFFA8
:10DE5000404603F049F803F041F808490860002003
:10DE6000C1E70000342100204C2100203021002097
:10DE70003821002048210020492100203C21002099
:10DE80002DE9F84304460D461746264600BF1148C3
:10DE9000006810B90820BDE8F88300BF0CB908205D
:10DEA000F9E7052D01D20720F5E7706908B90820C8
:10DEB000F1E7707C012801D1284600E0002080466F
:10DEC00003F0ECFF814643462A463146009703F0B3
:10DED000F5FBE0E73421002070B50446254600BF7D
:10DEE0000948006808B9082070BD00BF0CB1686916
:10DEF00008B90820F8E70020287403F0CFFF064691
:10DF0000294603F009FCEFE73421002070B50446F0
:10DF10000A4801F0E1FC09498988884208D10121B9
:10DF2000074802F055FB05460DB1052070BD00BF46
:10DF300021460248FFF7F8FEF8E7000068290020B4
:10DF4000052100202DE9F04188B004460D46174612
:10DF50009846294807601DB9072008B0BDE8F08140
:10DF6000A88882B225482968FFF7EDFE064600BF63
:10DF70000EB13046F1E700BFA88982B22048A968F7
:10DF8000FFF7E1FE064600BF0EB13046E5E700BFF1
:10DF900020221C496846FEF7C7F9A0680690207940
:10DFA00008B1012000E000208DF814008DF81C80DD
:10DFB000607908B10E2000E000208DF81500E078AF
:10DFC0000290A078039020780190607800900E492C
:10DFD000684602F08BFA064600BF0EB13046BCE739
:10DFE00000BF9DF81D0008B902F04AFB0121074857
:10DFF00002F0EEFAB1E700000021002068290020BD
:10E0000078290020B87302005D1A02000521002063
:10E0100070B5044621460A48FFF7A7FE054665B9D4
:10E0200002F094FC48B907490548FFF77DFE20B986
:10E030000121044802F0E8FB0546284670BD0000B7
:10E040007829002004210020F8B505460C46174623
:10E050002088001DB84201D90C20F8BD684679DF40
:10E06000064600BF0EB13046F7E700BF0320218807
:10E0700068542088401C20801920218868542088FA
:10E08000401C208020884119BDF8000003F0B8FE34
:10E090002188084420800020DFE7000010B50446F6
:10E0A000206802F0C5FC206802F098FC002160683E
:10E0B00002F07AFC2548007F18B3A0692449086063
:10E0C00000BF607D217D40EA0102224BC3F86C2530
:10E0D00000BF1846D4E9001202F08CFD207D012813
:10E0E00032D10021A06802F05FFCE06802F0A0FCE1
:10E0F000E06802F073FC1748D4E9022102F066FDE3
:10E1000022E0A0691249086000BF607D217D40EADD
:10E110000102104BC3F86C2500BF1846D4E9001269
:10E1200002F03FFD207D01280ED10021A06802F001
:10E130003BFCE06802F07CFCE06802F04FFC054824
:10E14000D4E9022102F016FD10BD0000E0290020F4
:10E1500024250040002000402DE9F04192B0804687
:10E160000D461F2011901090B8F1000F17D04046B7
:10E17000FFF73AFD044600BF1CB1204612B0BDE8CF
:10E18000F08100BF11AA08A94046FFF74AFC0446E7
:10E1900000BF0CB12046F1E700BF08AE02E0002648
:10E1A00000201190ADB1284603F062F9044600BF8B
:10E1B0000CB12046E2E700BF10AA69462846FFF7E7
:10E1C00030FC044600BF0CB12046D7E700BF6F46C5
:10E1D00002E0002700201090BDF84000C3B2BDF857
:10E1E0004400C1B23A46304672DFC7E72DE9F04736
:10E1F00004460F4615461E46DDF8208000BF14B9C0
:10E200000E20BDE8F08700BF00BF0DB90E20F8E773
:10E2100000BF002046490870464806604648C0F8DE
:10E220000080242229464548FEF77EF800F018F9C0
:10E230004348444908604448886038214348FEF711
:10E240008CF8207841490870A0788870E078C87010
:10E25000607848700846D4E90412C0E90412D4E991
:10E260000212C0E90212D4E90612C0E90612606A7D
:10E27000D8B137483549486236498160606A0088BC
:10E280003249496A0880606A80883049496A8880D2
:10E29000002005E0616A8968095C2E4A1154401C1F
:10E2A0002A49496A89888142F4D8A06A20B32A4958
:10E2B0002A4881602549886227492448806A81600C
:10E2C000A06A80882149896A8880A06A00881F49DD
:10E2D000896A0880002005E0A16A8968095C1E4AF5
:10E2E0001154401C1949896A89888142F4D894F8EC
:10E2F0002C00164981F82C00206A58B1184813499F
:10E300000862206A4088096A4880206A00880F49AC
:10E31000096A0880606820B112480C49486060684A
:10E32000486039460948FFF717FF8146484668E7C5
:10E33000DC200020D4200020D820002060280020ED
:10E340009428002084280020B428002028280020B9
:10E35000D4280020E02800200C29002000290020DB
:10E36000E0200020E420002070B50446208810281A
:10E3700004D0112809D01B2863D11BE0A07D0128FF
:10E3800002D1A088304908805CE000202F49087045
:10E39000A0882D49098888420BD1012000F068F837
:10E3A000054635B12A48006818B128462849096849
:10E3B000884747E0207A002842D126480078012883
:10E3C00006D0022811D003281CD0042836D129E019
:10E3D000022000F04DF8054635B11D48006818B11F
:10E3E00028461B490968884729E0032000F040F8C7
:10E3F000054635B11648006818B128461449096821
:10E4000088471CE0032014490870042000F030F80D
:10E41000054635B10E48006818B128460C49096810
:10E4200088470CE000200C4908700C48006820B1B7
:10E430000846007809490968884700E000BF00BF26
:10E4400000E000BF00BF70BDE6200020DD200020FE
:10E45000D8200020DC200020D0200020D420002064
:10E46000024800210160818081717047C92000202D
:10E4700030B587B005469548057001F064FA28B1BB
:10E48000012093490870002007B030BDFFF7E8FF76
:10E490009048407818B18D48007801280DD08D48FB
:10E4A000807818B189480078012806D0894880789A
:10E4B00088B18648007802280DD18748006838B1B5
:10E4C000012086490870082083490968884702E0CE
:10E4D0000020824908707D480078012809D17D48D4
:10E4E000407818B17E4802F0D1FC10B9022077497B
:10E4F000087076480078022809D17648807818B1EB
:10E50000774802F0C3FC10B90320704908707148C5
:10E51000007B30B96D480078032802D104206B4994
:10E5200008706C48007E40B968480078042804D11F
:10E530000020664908706B49087067480068A8B1F8
:10E5400062480078032803D06048007804280DD181
:10E550006048007850B16448007838B901206349B8
:10E56000087007205C490968884702E000205F497D
:10E570000870182101A8FDF7F0FE00208DF80400B6
:10E5800002908DF80C00049050480078012806D0C5
:10E59000022813D0032825D0042876D150E0504813
:10E5A000401E029001208DF804000020ADF81600F6
:10E5B000ADF8140001204B49087071E04848401E36
:10E5C000029001208DF804004248008980B2ADF825
:10E5D00016004048808880B2ADF8140002204149FE
:10E5E00008705DE03B48808A80B2ADF8160039487B
:10E5F000008A80B2ADF814003D4803F02AFDD8B17E
:10E6000034480078C0B138480078A8B902208DF8A5
:10E610000C003748049004203649C8700021354862
:10E62000FFF79AFD044600BF0CB120462CE700BF5F
:10E6300005202C49087002E003202A4908702FE0C9
:10E640002448808B80B2ADF814002248008C80B240
:10E65000ADF81600264803F0FCFCE0B11D48007838
:10E66000C8B121480078B0B902208DF80C002048CC
:10E67000049004201F49C87000211E48FFF76CFD5C
:10E68000044600BF14B12046FEE608E000BF0620A5
:10E690001449087002E004201249087000E000BF2D
:10E6A00000BF0A48007838B101A873DF044600BFF4
:10E6B0000CB12046E8E600BF0748006820B10948D1
:10E6C00000780549096888470020DDE6DC20002045
:10E6D000C820002060280020D4200020DF20002057
:10E6E000CA200020D0200020DD200020DE200020D5
:10E6F000842800202828002070B505461C222946C1
:10E700001248FDF711FE002011490870286850B129
:10E71000104829680A680260496841607ADF044647
:10E720003CB1204670BD0B487BDF04460CB120464F
:10E73000F8E74FF6FF700849088000200749087085
:10E74000074A00210748FFF721FBEBE72C290020AF
:10E75000FC200020E8200020F2200020F0200020F3
:10E760000D1E0200A473020010B504462088102874
:10E7700006D0112808D012280ED0502810D107E05A
:10E78000204602F0EBFA0CE0204602F007FB08E01E
:10E79000204602F027FB04E0204602F0D3FA00E016
:10E7A00000BF00BF10BD2DE9FC4105460C461746D1
:10E7B00020880930B84202D90C20BDE8FC816846A7
:10E7C00071DF064600BF0EB13046F6E700BF0820F5
:10E7D000218868542088401C20801B202188685490
:10E7E0002088401C208020882844DDF8011001602A
:10E7F000BDF8051081802088801D20809DF80000D4
:10E8000018B900202188685402E00120218868544A
:10E810002088401C20800020CFE7000010B504466F
:10E820002046FFF7A1FF2146064800F057F8204692
:10E8300002F01CFA2046FFF797FD204600F0F4F89E
:10E8400010BD00008821002070B586B004460E4639
:10E85000214B0FCB01AD0FC500BF14B90E2006B080
:10E8600070BD00BF00BF0EB90E20F8E700BF4FF625
:10E87000FF70A0823068A0610020A075214601A829
:10E8800063DF054600BF0DB12846E8E700BF2078EA
:10E890008DF816000120ADF81400A21C05A9A0DF18
:10E8A000054600BF0DB12846D9E700BF31462046D6
:10E8B00002F098FB054600BF0DB12846CFE700BF28
:10E8C0003146204602F0D8FF054600BF0DB128466C
:10E8D000C5E700BF0020C2E7A873020070B5054677
:10E8E0000C4605B104B970BD2088102804D0112849
:10E8F00007D050280FD109E02146284602F04AFAF5
:10E900000AE02146284602F069FA05E02146284639
:10E9100002F094FA00E000BF00BF00BFE3E737B5A4
:10E9200084B004460D4600BF14B90E2007B030BDB8
:10E9300000BFA08A4FF6FF71884201D0A07D08B9C0
:10E940000820F3E7BDF81800142801DD0720EDE7E3
:10E9500000200090019002900390A089ADF8000083
:10E96000039506A8029001208DF80200A08A69464E
:10E97000A6DFDBE770B586B027480068059000BFCA
:10E9800000234822254905A802F040FD054600BFA6
:10E990002E4626B100BF3046FFF7B8F900BF00BFD2
:10E9A00000BF6A460121002002F010FD044600BFAE
:10E9B000254625B100BF2846FFF7A8F900BF00BFD4
:10E9C00000BF174E304602F0CDFB044600BF25467F
:10E9D00025B100BF2846FFF799F900BF00BF00BF6F
:10E9E000684602F0E5FC044600BF254625B100BF9D
:10E9F0002846FFF78BF900BF00BF0A4802F0CCFCA5
:10EA0000044600BF254625B100BF2846FFF77EF922
:10EA100000BF00BF06B070BD4C730200C4210020CF
:10EA2000E81F00201DE8010070B505462888102861
:10EA300002D011282CD115E01748006860B900F009
:10EA400057FD044600BF34B11448006818B1204691
:10EA500012490968884700BF0F480068401C0E49EA
:10EA6000086016E00C480068401E0B490860084624
:10EA7000006860B9FFF7C1F8044600BF34B1074829
:10EA8000006818B1204605490968884700BF00E0C2
:10EA900000BF00BF70BD0000C4200020C0200020C7
:10EAA00010B5032000F084FB044600BF1CB1062C07
:10EAB00001D0204610BD00BF0020FBE72DE9F0414A
:10EAC00005460F464FF00008002400E0641C042CAB
:10EAD00004D22A4850F82400A842F7D1042C41D28D
:10EAE00027B3012F02D0022F3BD133E004EB4400C7
:10EAF000234911F8008004EB44000844407868B1D1
:10EB00002048006800EB800041001F4A1F48006851
:10EB1000FFF7B6F906460EB91B48057004EB440032
:10EB20001749084480781A4908551AE017480068C0
:10EB3000FFF7D2F91648005D04EB4401104A114476
:10EB40008978884205D104EB44001146084490F8C6
:10EB5000028006E004EB44000949084490F8018073
:10EB600000BF00BFB8F1000F06D00A48006818B116
:10EB70004046084909688847BDE8F081747302007F
:10EB8000FC270020A8200020B8200020707302007D
:10EB9000B9200020B420002030B503460020042B0B
:10EBA00023D2012A07D1012903D103F10D04E4B2D4
:10EBB00000E00024224679B1012902D0022911D1B6
:10EBC00004E003EB43040A4D2A550DE003EB430434
:10EBD000074D2C44627007E003EB4304044D2C44C2
:10EBE000A27001E0072000BF00E0072030BD000058
:10EBF000FC27002070B5044600250548007800F089
:10EC0000010018B1204600F005F80546284670BD01
:10EC1000AC2000202DE9F041044600260025182CE8
:10EC20007DD2DFE804F00C1D1E68B4EEEDECEBEADB
:10EC3000E9E8E7E6E5E4E3E2E1E0DFDEDDDC00BFB2
:10EC4000FD4801684FF4F010884300F4F010FB49D0
:10EC500008600020091D086000BFF948047098E2B0
:10EC600000BF00BFF44801684FF4E010884300F48F
:10EC7000F010F24908600020091D086000BFEF484D
:10EC8000001F006880F4F01000F4003088B100BF6D
:10EC90004FF40030091F08600020091D086000BF04
:10ECA000022C02D14FF4E16001E04FF47A60054696
:10ECB00010E000BF4FF40030E049091D086000205B
:10ECC000091F086000BF022C01D1C82001E04FF4E9
:10ECD000C8700546DA4804706420B5FBF0F0D949E5
:10ECE000096800FB01F700223946D7480068FFF7A2
:10ECF000C7F806464DE200BFCF4801684FF4E01068
:10ED0000884300F4F010CD4908600020091D086018
:10ED100000BFCA48001F006880F4F01000E037E22E
:10ED200000F4003088B100BF4FF40030091F0860C4
:10ED30000020091D086000BF032C02D14FF4487069
:10ED400001E04FF47A60054610E000BF4FF4003058
:10ED5000BA49091D08600020091F086000BF032C84
:10ED600001D1C82001E04FF4C8700546B4480470D2
:10ED70006420B5FBF0F0B349096800FB01F70022FD
:10ED80003946B1480068FFF77BF8064601E200BF4C
:10ED9000A94801684FF4E010884300F4F010A74937
:10EDA00008600020091D086000BFA448001F00681B
:10EDB00080F4F01000F4003020B300BF4FF40030B6
:10EDC000091F08600020091D086000BF042C02D143
:10EDD0004FF47A6001E04FF47A60054624E0CBE11D
:10EDE000C9E1B3E19DE187E179E13FE13DE13BE14B
:10EDF00039E137E12AE105E1EDE0D3E0BBE0A1E054
:10EE00006CE022E000BF4FF400308C49091D08601F
:10EE10000020091F086000BF042C02D14FF4C87005
:10EE200001E04FF4C8700546854804706420B5FBC6
:10EE3000F0F08449096800FB01F700223946824856
:10EE40000068FFF71DF80646A3E100BF7A48016895
:10EE50004FF4E010884300F4F01078490860002077
:10EE6000091D086000BF7548001F006880F4F0109D
:10EE700000F4003080B100BF4FF40030091F08607B
:10EE80000020091D086000BF052C01D1C82001E049
:10EE90004FF47A60054610E000BF4FF40030674938
:10EEA000091D08600020091F086000BF052C01D162
:10EEB000C82001E04FF4C870054661480470642022
:10EEC000B5FBF0F05F49096800FB01F70022394605
:10EED0005D480068FEF7D4FF06465AE100BF564879
:10EEE00001684FF4E010884300F4F01053490860C3
:10EEF0000020091D086000BF5048001F006880F412
:10EF0000F01000F4003040B100BF4FF40030091F92
:10EF100008600020091D086009E000BF4FF40030C0
:10EF20004649091D08600020091F086000BF4448C9
:10EF3000047044480022016843480068FEF7A0FFBF
:10EF4000064626E100BF3C4801684FF4E0108843C4
:10EF500000F4F010394908600020091D086000BF66
:10EF600000BF4FF4003008600020091F086000BF98
:10EF7000334804700DE100BF3049091F08684FF4A1
:10EF8000802181432D4A116000F48021121D1160FF
:10EF900000BF2C48002201682B480068FEF770FF74
:10EFA0000646F6E000BF2549091F08684FF4802196
:10EFB0008143224A116000F48021121D116000BFBC
:10EFC0002048006800EB800100221F480068FEF71F
:10EFD00057FF0646DDE000BF1849091F08684FF4D7
:10EFE00080218143154A116000F48021121D1160B7
:10EFF00000BF14480022016813480068FEF740FF74
:10F000000646C6E000BF0D49091F08684FF480217D
:10F0100081430A4A116000F48021121D116000BF73
:10F020000848006800EB8001002207480068FEF7EE
:10F0300027FF0646ADE00000B02000200805005084
:10F04000A4200020A82000206873020000BF4FF415
:10F05000F010524908600020091F086000BF5048A6
:10F06000047096E000BF00BF00BF00BF4D480068BD
:10F07000FEF732FF0646C4F111050DB306BB4FF48F
:10F08000002049490860012D0FD9C8206843642138
:10F09000B0FBF1F04549096800FB01F70022394651
:10F0A00040480068FEF7ECFE064600BF3E48006898
:10F0B00000F4F010394908600020091F08600DE0D5
:10F0C00000BF3948006800F4F0103449091F086097
:10F0D0000020091D086000BF3349086059E000BFE7
:10F0E0004FF4F0102D49091F08600020091D086029
:10F0F00000BF2B4804704CE000BF4FF4E0102749DC
:10F10000091F08600020091D086000BF00BF4FF400
:10F11000003008600020091F086000BF204804700C
:10F1200037E000BF4FF4D0101C49091F08600020D1
:10F13000091D086000BF00BF4FF480200860002058
:10F14000091F086000BF1648047022E000BF4FF49A
:10F15000C0101249091F08600020091D086000BF87
:10F1600000BF4FF4C02008600020091F086000BFE6
:10F170000B4804700DE000BF00BF4FF4F0100749CA
:10F1800008600020091F086000BF0548047000E007
:10F1900000BF00BF3046BDE8F08100000C05005004
:10F1A000A42000206C730200B0200020A8200020C2
:10F1B00030B5024600201AE00F4C54F82040A4005D
:10F1C00004F1A044D4F800170124844014400CB189
:10F1D000032400E00024234621F4403141EA0341A6
:10F1E000064C054D55F8205044F82510401C0428C5
:10F1F000E2D3002030BD000074730200000700500D
:10F200000146024850F8210070470000882900207C
:10F210000146014840567047B82900202DE9F047C3
:10F2200082461F480068002836D01D4800680568DF
:10F2300001F054FE07461B4804682146384602F098
:10F2400041F9C61C1848007808B901F059FEAE42D1
:10F2500001D2284600E03046044424F07F44204692
:10F2600001F036FE01F03AFE80463946404602F093
:10F2700029F900F103093946204602F023F98145B6
:10F2800009D901F02BFE814601F022FE2F20FCF768
:10F29000C1FF02F0ADFA01E001F050FEBDE8F087D9
:10F2A000382100203C210020502100202DE9F04190
:10F2B0000446A07930B9207801F09CFB607801F019
:10F2C00099FB07E02078002101F07BFB60780021AA
:10F2D00001F077FBA078FF2804D0A578284601F03C
:10F2E00089FB01E04FF0FF35E078FF2804D0E67895
:10F2F000304601F07FFB01E04FF0FF362079FF2818
:10F3000005D027790021384601F05BFB01E04FF082
:10F31000FF3709482178627840F2645319501B1D69
:10F320001A50C0F860554FF4AE631E501B1F1F509B
:10F3300000BFBDE8F081000000500240014608888F
:10F34000062808DB0888B0F5486F06DD08884FF608
:10F35000FF72904201D0072070474888062808DBDA
:10F360004888B0F5486F06DD48884FF6FF72904236
:10F3700001D00720F0E708884FF6FF72904208D0CE
:10F380004888904205D008884A88904201DD0720CD
:10F39000E2E70020E0E72DE9F04106460D4614467D
:10F3A00098462088801D404502D90C20BDE8F08198
:10F3B0003046FFF7C3FF074600BF0FB13846F5E7F9
:10F3C00000BF0520218868542088401C208012201E
:10F3D000218868542088401C208022885119308858
:10F3E00002F00EFD2188084420802288511970887F
:10F3F00002F006FD2188084420800020D6E710B5E1
:10F40000044600BF2046FEF781FC00BF10BD00008F
:10F4100030B587B01C216846FCF79FFF00200090A4
:10F420004FF4203001904FF47020029003208DF8AB
:10F430000C000020ADF80E008DF810000948059072
:10F44000094806906846FFF757F9044600BF25466D
:10F4500025B100BF2846FEF759FC00BF00BF07B02A
:10F4600030BD0000190D0200FFF3010038B51B4844
:10F4700000F0CAFC20BB1A48007848B1194840691E
:10F48000E8B100200090174841696846884716E0B7
:10F490001548007810B91348456801E0114885689F
:10F4A0000022294611480068FEF7EAFC044634B100
:10F4B0000C48806918B10B4881692046884709E0EB
:10F4C0000848406930B1012000900648416968460B
:10F4D000884700BF00200249087038BDF420002092
:10F4E000FC2000202C290020F0200020A473020022
:10F4F00010B5012200210846FFF74EFB044600BF6D
:10F500001CB1072C01D0204610BD00BF07220221EC
:10F510000120FFF741FB044600BF1CB1072C01D0BE
:10F520002046F1E700BF042202210020FFF734FB50
:10F53000044600BF1CB1072C01D02046E4E700BF01
:10F540000020E1E770B5044624B1012C03D0022C61
:10F5500003D101E00AE009E008E000BF002500BF98
:10F560000020FEF7D3FB00BF00BF00BF00BF70BD8F
:10F57000014614480078144A127890421DD0114870
:10F580000078401C0F4A107010460078022801D104
:10F59000002010700D480B4A127850F822000860C5
:10F5A0000B4A086812681044094A10601046006847
:10F5B00020F07F401060012070470020086000BFED
:10F5C000FAE70000482100204921002040210020C6
:10F5D0003C21002013480078062820D11148001D46
:10F5E000007800F00F00D0B90E480830007800F025
:10F5F000F000302801D1012070470A480830007817
:10F6000000F0F000402801D10120F5E7054808305E
:10F61000007800F0F000502801D10120ECE7002034
:10F62000EAE70000E00F00F013480078062820D138
:10F630001148001D007800F00F00D0B90E480830C6
:10F64000007800F0F000302801D1012070470A480E
:10F650000830007800F0F000402801D10120F5E7E3
:10F6600005480830007800F0F000502801D1012052
:10F67000ECE70020EAE70000E00F00F01348007814
:10F68000062820D11148001D007800F00F00D0B9E5
:10F690000E480830007800F0F000302801D1012039
:10F6A00070470A480830007800F0F000402801D187
:10F6B0000120F5E705480830007800F0F0005028F8
:10F6C00001D10120ECE70020EAE70000E00F00F0A4
:10F6D0000A48007806280ED10848001D007800F07E
:10F6E0000F0040B905480830007800F0F0003028DD
:10F6F00001D1012070470020FCE70000E00F00F07E
:10F7000013480078062820D11148001D007800F029
:10F710000F00D0B90E480830007800F0F000302813
:10F7200001D1012070470A480830007800F0F0004D
:10F73000402801D10120F5E705480830007800F0A5
:10F74000F000502801D10120ECE70020EAE700009A
:10F75000E00F00F00A48007806280ED10848001D86
:10F76000007800F00F0040B905480830007800F03C
:10F77000F000302801D1012070470020FCE7000094
:10F78000E00F00F013480078062820D11148001D32
:10F79000007800F00F00D0B90E480830007800F073
:10F7A000F000302801D1012070470A480830007865
:10F7B00000F0F000402801D10120F5E705480830AD
:10F7C000007800F0F000502801D10120ECE7002083
:10F7D000EAE70000E00F00F00A48007806280ED1A2
:10F7E0000848001D007800F00F0040B905480830B7
:10F7F000007800F0F000302801D10120704700208F
:10F80000FCE70000E00F00F00A48007806280ED15F
:10F810000848001D007800F00F0040B90548083086
:10F82000007800F0F000302801D10120704700205E
:10F83000FCE70000E00F00F00A48007806280ED12F
:10F840000848001D007800F00F0040B90548083056
:10F85000007800F0F000502801D10120704700200E
:10F86000FCE70000E00F00F0F0B5034600241FE0C5
:10F87000124E306806689E4203D90668F61A066082
:10F880001AE006689B1B06683444002606600B4E8F
:10F8900035680A4FC6693E60C66846B10E1926F043
:10F8A0007F464660C66886601668C661156000BF00
:10F8B000024800680028DBD100BFF0BD38210020DD
:10F8C00070B504460D462A460021204600F00EF889
:10F8D000A068401CA06070BD01468A68C868801A94
:10F8E000704701468A68C868801A704710B58368F7
:10F8F0000B44848823400468E35C137010BDC26825
:10F9000083881A4003689954C268521CC2607047C9
:10F9100030B504461088C01C984201D90C2030BD77
:10F920000220158848551088401C10800120158839
:10F9300048551088401C108015884C551088401C74
:10F9400010800020EBE738B500200090684601F0F9
:10F95000A9FA0446082C02D00CB1012038BD082CAD
:10F9600006D1684600F03AF804460CB10020F5E7ED
:10F97000009808B10120F1E70020EFE770B50446D8
:10F980000D46E0B2FEF744FB204670BD10B50028DE
:10F9900021D0114B0022001F196803E0814203D8D7
:10F9A0000A4649680029F9D152B11368841A9C4269
:10F9B00004D1006818441060104602E0506000E076
:10F9C000186039B102680B1A934203D10B681A44CC
:10F9D00002604968416010BD80210020014609B9DC
:10F9E000032070470248406D08600020F9E70000DE
:10F9F000042B00203EB500BF9DF8000020F00F0052
:10FA0000401C00909DF8000020F0F00010300090A5
:10FA100000BF0B2214A168467CDF044600BF2546C8
:10FA200025B100BF2846FEF771F900BF00BF0020D6
:10FA3000019002901020ADF804003C20ADF80600C3
:10FA40000020ADF808004FF4C870ADF80A0001A816
:10FA50007ADF044600BF254625B100BF2846FEF7E1
:10FA600055F900BF00BF3EBD4E6F726469635F55BC
:10FA70004152540070B506460D461446ADB10B48D0
:10FA8000007801280CD14FF6FF7000EA8402294665
:10FA90000748006800F010F800200449087004E0EE
:10FAA00004480078401C0349087070BD752100208F
:10FAB0007821002074210020F0B5034614461A4630
:10FAC000012000253BE017783F0492F801C047EA87
:10FAD0000C2792F802C047EA0C0600272AE006F439
:10FAE000400CBCF5800F06D0BCF5000F08D0BCF56B
:10FAF000400F0FD109E04FF08E0C01F800C00EE06E
:10FB00004FF0E80C01F800C009E04FF0EE0C01F8EE
:10FB100000C004E04FF0880C01F800C000BF00BF37
:10FB2000491CC0F1000C4FFA8CF0B60007F1010C33
:10FB30000CF0FF070C2FD2DBD21C6E1CB5B20C26CA
:10FB400094FBF6F6AE42BEDCF0BD00002DE9F04FAE
:10FB500085B081468846924614223F496846FCF7A4
:10FB6000E3FB16208DF80000FF208DF801008DF8D2
:10FB700002008DF803A08DF8040002208DF8050026
:10FB800000208DF806008DF807008DF80800012090
:10FB90008DF8090000208DF80A004FF0C050039046
:10FBA00000208DF810002D49684600F08DFB0446BA
:10FBB00000BFA346BBF1000F04D000BF5846FEF7BC
:10FBC000A5F800BF00BF1CB1204605B0BDE8F08F0E
:10FBD00008EB48018800C11700EB9171C1F38F0653
:10FBE00035462E46A80000F06DFA07461C48C0F8BE
:10FBF000009000201B49087001201B4908704FF637
:10FC0000FF7000EA460200233946184600F08CFBDC
:10FC1000044600BFA346BBF1000F04D000BF584606
:10FC2000FEF774F800BF00BF2CB1A3463846FFF7BB
:10FC3000ADFE5846C9E708F11401C1EB01114800B7
:10FC4000FCF724FB00F016FC00F02EFC3846FFF712
:10FC50009DFE0020B9E700000C74020075FA010057
:10FC6000782100207421002075210020F8B5234858
:10FC7000007800B9F8BD2248006808B9012000E00A
:10FC8000002005461F48006808B9012000E0002058
:10FC9000064600BF8DB9684652DF0446052C01D1E7
:10FCA000012509E024B100BF2046FEF72FF803E04C
:10FCB000134900980968884700BFBEB912480088F8
:10FCC000009069461148006861DF0446052C01D1A7
:10FCD00001260AE024B100BF2046FEF717F804E031
:10FCE0000A48006807490968884700BF0DB106B196
:10FCF00000E0CFE700BF00BFBCE7000060210020AC
:10FD0000702100206C210020682100206421002047
:10FD100070B505460C461021284600F003FF68B177
:10FD20004FF48871284600F0F3FE38B14FF4887123
:10FD3000284600F0F4FE012021688847202128464B
:10FD400000F0F0FE68B14FF48A71284600F0E0FE42
:10FD500038B14FF48A71284600F0E1FE0220216894
:10FD600088478021284600F0DDFE68B14FF48E718F
:10FD7000284600F0CDFE38B14FF48E71284600F0D1
:10FD8000CEFE0020216888474FF48271284600F09B
:10FD9000BFFE48B14FF48271284600F0C0FE01203A
:10FDA000207103202168884770BD2DE9F047044683
:10FDB0000E469046002722E0384600F0BCFE05467D
:10FDC000384600F0BFFE81462046294642580AB117
:10FDD000012200E0002282B14846D4F80413014019
:10FDE00009B1012100E0002139B12946204600F087
:10FDF000AEFE2846D6E900219047781CC7B2474599
:10FE0000DADBBDE8F087000001464888064A128820
:10FE1000904206DB4888044A5288904201DC012067
:10FE200070470020FCE70000E820002030B50446C1
:10FE30001088C01C984201D90C2030BD02201588C2
:10FE400048551088401C10801C2015884855108883
:10FE5000401C1080012C06D0022C08D0032C0AD0A4
:10FE6000042C10D10BE00020158848550DE001202E
:10FE70001588485509E002201588485505E00320FB
:10FE80001588485501E00720D7E700BF1088401CBF
:10FE900010800020D1E700002DE9F0412148D0F882
:10FEA0000080214806782FE02048006800EBC60457
:10FEB000257825E005EB4501606800EBC107681C6B
:10FEC000C5B2A078A84200D100253878022802D017
:10FED000032812D103E0786801F0A4FB0EE007E0EC
:10FEE00010490868002101740E4AC169116000BF01
:10FEF0000C4800680028F3D100E000BF00BF00BF3D
:10FF00006078A842D6D100BF3000A6F10101CEB280
:10FF1000CAD104480068404502D00120BDE8F08104
:10FF20000020FBE738210020302100203421002070
:10FF30002DE9F04706463B48D0F800903A4807784C
:10FF400061E03A48006800EBC70555E016B1344659
:10FF5000E66923E02A7802EB4202696801EBC200FD
:10FF60002978491C29702978AA78914201D1002169
:10FF7000297044680178012901D1217C01B13BE05D
:10FF800081686160C168A1600169E1604169A16146
:10FF90002749097809B10021616000BF25496068DF
:10FFA0000968401A20F07F402349884208D221493D
:10FFB0006068096801F086FAA1680844206010E0D2
:10FFC0001C486168006801F07DFA8046A0684045E1
:10FFD00004D9A068A0EB0800206001E000202060A8
:10FFE00000BF00206060A060012020740020E0615C
:10FFF000204601F0E3FA00BF002EA7D128786978E7
:020000040002F8
:100000008842A3D100BF3800A7F10101CFB298D137
:1000100004480068484502D00120BDE8F087002070
:10002000FBE700003821002030210020342100208F
:10003000512100203C210020FFFF7F0008B51B4814
:10004000009000BF00BF0023194A05211846FDF7A4
:10005000BBFE054600BF2E4626B100BF3046FDF769
:1000600055FE00BF00BF00BF01F058FDFEF782FC47
:10007000FFF7C0FC01F052F9FDF7EAFDFFF7C8F900
:1000800001F042FA0BA0FDF763F80320FEF7F0F948
:10009000044600BF254625B100BF2846FDF736FEC1
:1000A00000BF00BF01F0F4FA00BFFEE745F5010014
:1000B000E82500200D0A5541525420537461727492
:1000C000210D0A00F0B50B30154D20F0070100247A
:1000D000144A0FE003688B420BD38B4205D95E1A9A
:1000E00043184768C3E9006700E04368136002C033
:1000F00004E0021D10680028ECD12046002802D13F
:10010000286808B10020F0BD064A07481060074A79
:10011000121A22F00702C0E9002401202860D7E764
:1001200084210020802100206C2B0020684B0020BF
:100130002DE9F04105460E4614469846A888871CCE
:100140002088801C3844404502D90C20BDE8F0814D
:10015000FE2F01D90C20F9E7781C218870542088E3
:10016000401C2080FF20218870542088401C208063
:1001700022889119288801F043FE218808442080B4
:10018000A88800280DDDA86808B90720DEE7AA883E
:1001900023889819A968FCF7C7F82088A98808441B
:1001A00020800020D2E72DE9F84F05460F4614467F
:1001B00098462878012804D1687810B90720BDE84E
:1001C000F88F2088801C404508D82878012807D15E
:1001D0002088801C69780844404501D90C20EEE74E
:1001E0002088A8EB0000801E86B200962188891C1A
:1001F000C81969467DDF814600BFB9F1000F01D003
:100200004846DCE700BF2878022806D1BDF8000088
:10021000B04202DC4FF0090A0BE04FF0080A2878E0
:10022000012805D16878B04202DC6878009000E0CF
:100230000096BDF80000FE2801D90C20BFE7BDF8EC
:100240000000401C218878542088401C2080208891
:1002500007F800A02088401C20802088BDF80010EE
:10026000084420800020AAE770B50B4601461A46D4
:10027000002907DA5407260E104C01F00F052D1F38
:10028000665503E05407250E0D4C655400BF00BFB2
:1002900000F01F02012191400A4A440942F824104B
:1002A00000BF00BF00F01F020121914042099200EF
:1002B00002F1E022C2F8001100BF70BD18ED00E0AD
:1002C00000E400E080E200E07FB504460D461348FC
:1002D000007910B1082004B070BD04B9104C207C26
:1002E000A27A637AE168CDE90032CDE90210237A7F
:1002F000E279A1790B4800F0C2FB08B90720EAE7D0
:100300002046FEF7D3FF0548056061792520FFF7F9
:10031000ABFF0120014908710020DCE7D82A00204A
:10032000F8730200005002402DE9FF5F04460D46BD
:100330001746384607EBD071C1F34F0800BF494854
:100340000079012803D0082004B0BDE8F09F00BF69
:100350002CB1204600F0C0F808B91020F4E72DB108
:10036000284600F0B9F808B91020EDE73E4EC34624
:10037000A146AA46C6F850B54946304600F0BFFB34
:10038000B9F1000F01D0012100E000214FF4A1607C
:1003900081515146304600F0B8FBBAF1000F01D050
:1003A000012100E0002140F20C50815100BF2D4896
:1003B0008460C560A0F80680407920F0080008300D
:1003C00028494871039800F00100B0B108468068E0
:1003D00098B10846C06880B10846407920F0010015
:1003E000401C48710846407920F0020048710846D8
:1003F000407920F00400487105E01A48407920F067
:1004000001001849487100BF01201849086000BF69
:100410000220144908710846C06878B1084640793E
:1004200000F0010020B1C8683946FBF796FF05E0EF
:100430000C48C288C1680368002098474FF4827155
:10044000094800F059FB4FF48A71074800F054FB4B
:1004500022200749086000BF0021034800F052FB3A
:10046000002071E7D82A00200050024000550240C9
:100470000453024010B522200849086000BF04213F
:10048000074800F03FFB00BF00200549C1F8000508
:1004900000BF01200349087110BD0000085302404D
:1004A00000500240D82A002010B5FFF7E3FF2520B6
:1004B00000BF00F01F0201219140054A430942F8A4
:1004C000231000BF00BF00200249087110BD0000CA
:1004D00080E100E0D82A0020014601F06040B0F140
:1004E000005F01D1012070470020FCE770B5044691
:1004F0000D463148C07E08B1082070BD04B92F4CAC
:10050000607F2D4908772046FDF7C8FD2A484560E1
:100510002949206908600846406880B3267F08465C
:10052000007FC0B14FF48871254800F04CFB4FF4B8
:100530009071234800F047FB4FF49271204800F07F
:1005400042FB4FF4A2711E4800F03DFB1D491C48C0
:1005500000F045FB0DE04FF48E71194800F007FBE9
:100560004FF4A271164800F002FB1749144800F03E
:1005700009FB31460220FFF777FE00BF00BF00BF36
:100580000D48007F28B100BF08201049086000BF57
:1005900005E000BF04200D49086000BF00BF00BF98
:1005A00000200549C875087688750120C8760020A6
:1005B000887600BFA1E70000E0290020D873020080
:1005C00000200040100302008000020000250040CF
:1005D00070B504460D462848007F30B1200C000459
:1005E000B0F1005F01D0102070BD002622484068A5
:1005F00068B12148007F28B14FF404711F4800F012
:10060000EBFA04E04FF401711C4800F0B8FA1A4804
:10061000C07DB0B11848007E90B11748406868B1FD
:100620001548007F28B14FF40471144800F0D7FA40
:1006300004E04FF40171114800F0A4FA1120D3E74F
:1006400001263EB90C48C575C46000200A494876A9
:10065000087602E00848046105760748007F28B163
:1006600032462946204600F075F8BDE73246294655
:10067000204600F015F8B7E7E029002000200040F0
:1006800010B50648007F38B90448807E20B900F0D4
:1006900057FD01200149887610BD0000E0290020A7
:1006A0002DE9F0478046894616462848807E10B9D5
:1006B0000EB900F045FD2548406800283FD14FF4B1
:1006C000A271234800F053FA00BF00BF4FF49271AB
:1006D0001F4800F045FA05464FF484711C4800F0AD
:1006E0003FFA07464FF4A271194800F039FA044660
:1006F00017B90CB9002DE9D005B904B107E000F035
:1007000049FC1248C07D1149497E8842DDDC00BFAA
:1007100000200E49C87515B10320BDE8F0870CB163
:100720000F20FAE70948807E20B10021084800F038
:1007300035FA03E00421064800F030FA04E04FF4F3
:100740000171034800F01EFA0020E6E7E0290020CE
:10075000002000402DE9F04704460D4690464FF436
:100760008871264800F02FFA4FF4A271234800F058
:100770002AFA2248C0F834454FF4A7610D5000BF53
:10078000B8F1000F03D1002100F031FA08E0202079
:100790001B4909680143194AC2F8001200BF00BF93
:1007A0001848406818BB00BF4FF48871134800F028
:1007B00003FA81464FF4A271104800F0FDF9074694
:1007C0004FF492710D4800F0F7F90646B9F1000FA9
:1007D00002D10FB9002EE7D000200A49C87516B122
:1007E0000320BDE8F0870FB10F20FAE704E04FF4D3
:1007F0000471024800F0F3F90020F2E70020004005
:1008000000220040E029002070B504460D460F4844
:10081000007F30B1200C0004B0F1005F01D0102047
:1008200070BD00F093F808B11120F9E7074885750D
:1008300084600020054988820846007F10B100F0DE
:100840004DF8EDE700F004F8EAE70000E0290020A9
:1008500010B500244FF48E711E4800F088F908216D
:100860001C4800F09BF900F0EBFF1B48406878BB88
:1008700012E000BF4FF48E71164800F071F920B9F4
:100880001548808AB0F5807FF4D11348808AB0F58E
:10089000807F01D000F0D4FF0F48808A0E49897D07
:1008A0008842E6DB0C48808AB0F5807F01D10F24B6
:1008B0000BE000BF4FF48E71064800F051F900289C
:1008C000F8D00C21034800F069F90020024988752E
:1008D000204610BD00200040E029002070B5002611
:1008E0004FF49071174800F06EF94FF4AC71154851
:1008F00000F069F91348144B99689A7DC0F84415C3
:100900004FF4A9631A5000BF082100F070F90E4897
:100910004068A8B900BF4FF490710A4800F04CF944
:1009200005464FF4AC71074800F046F904460DB98E
:10093000002CF0D004B10F2600200349887500BFB9
:10094000304670BD00200040E02900200348807D33
:1009500008B1012070470020FCE70000E0290020DA
:10096000F0B5DDE9054541EA420646EA830646EA76
:10097000042646EA0547024E46F82070F0BD000006
:1009800000070050F0B5DDE9054541EA420646EAB8
:10099000830646EA042646EA0547024E46F82070DA
:1009A000F0BD0000000700507CB505460C46002055
:1009B000009023460246014601902846FFF7D0FFEB
:1009C0007CBD7CB505460C460020009023460246BF
:1009D000014601902846FFF7D5FF7CBD1CB50446B3
:1009E0000020009003460122114601902046FFF7A7
:1009F000B7FF1CBD1CB50446002000900346012231
:100A0000114601902046FFF7BDFF1CBD074A52F872
:100A1000202022F44033054A42F8203052F82020AA
:100A200042EA0143014A42F8203070470007005073
:100A300001218140014A1160704700000805005003
:100A400001460148084470470060004038B504463C
:100A50002046FFF7F5FF002101602046FFF7F0FF79
:100A60000068009000BF38BD10B504462046FFF76F
:100A7000E7FF0068012800D110BD0020FCE72DE948
:100A8000F0410446DDE907C7069E099D89B9012E9C
:100A900001D1012D0AD0022E0BD13DB1022D05D07E
:100AA000042D03D0062D01D0082D02D10020BDE871
:100AB000F081C4F8041540F224500251001F035184
:100AC000001F0651C4F828C5001F055127B94FF073
:100AD0000008C4F8108506E040F2145007514FF0AA
:100AE0000108C4F810850120E1E70246505808B11A
:100AF000012070470020FCE7002242507047C0F8F8
:100B000038157047012242507047C0F840157047B1
:100B10000246505808B1012070470020FCE700222F
:100B2000425070470246D2F80403084008B1012041
:100B300070470020FCE701464FF4A07000EB8100F5
:100B400080B2704701464FF48030884070470022E1
:100B5000425070470146D1F88004C1F880047047C4
:100B60000246505808B1012070470020FCE70022DF
:100B700042507047C0F80815C0F810257047C0F8FB
:100B800008137047C0F8041370470246D2F80403F4
:100B9000084008B1012070470020FCE701224250C4
:100BA0007047C0F80C15C0F8142570470146D1F8FD
:100BB0008004C1F8800470470246505808B10120F3
:100BC00070470020FCE7002242507047C0F808152B
:100BD0004FF4A2631A507047C0F808137047C0F86A
:100BE00004137047014640F23C50405870470122C0
:100BF0004250704740F20C53195040F214531A50AF
:100C00007047000010B50B78312B06D0322B08D07E
:100C1000332B0AD0342B0AD108E00023054C237073
:100C200005E00123034C237001E000E000BF00BF9A
:100C300010BD00008620002070B505467DB1032D53
:100C400010D10220FDF7D6FF044600BF264626B18C
:100C500000BF3046FDF75AF800BF00BF03E000F0C8
:100C600075FB00E000BF00BF70BD000070B5054619
:100C70002888102806D0112815D0132825D05228EE
:100C800045D133E00720FDF7B5FF044600BF2646F7
:100C900026B100BF3046FDF739F800BF00BFA88875
:100CA0001C49088034E00020FDF7A4FF044600BF83
:100CB000264626B100BF3046FDF728F800BF00BF2A
:100CC0004FF6FF701349088022E000231A46852161
:100CD000104800887FDF044600BF264626B100BFCB
:100CE0003046FDF713F800BF00BF11E000231A469D
:100CF000194608480088A9DF044600BF264626B1E9
:100D000000BF3046FDF702F800BF00BF00E000BFA3
:100D100000BF70BD8020002070B50546287868B9F6
:100D20003B210748008876DF044600BF264626B1EF
:100D300000BF3046FCF7EAFF00BF00BF70BD0000F7
:100D40008020002010B504460349A2680A60E068CC
:100D50004860FEF78BFB10BDF420002010B5044660
:100D6000A088084908800849A2690A60E0694860CB
:100D70000020064908700648C08908B9FEF776FBCE
:100D800010BD0000F2200020F4200020F020002000
:100D90002C2900208A8882827047000070B50546A1
:100DA0004FF6FF700949088000200949087009487A
:100DB0000068FDF791F8044634B10748806918B11E
:100DC000054881692046884770BD0000F220002058
:100DD000F0200020A47302002C2900204FF6FF729F
:100DE0008282704770B50546AC1D20881149C989BB
:100DF00088421DD1608902281AD100BF00BF217B23
:100E0000627B41EA0221084600F0010111B1FEF7C0
:100E10002DFB0DE008480068FDF75EF8064636B188
:100E20000448806918B1034881693046884700BF8B
:100E300070BD00002C290020A473020070B5044688
:100E40000E46B51D2988208A814212D16889022860
:100E50000FD100BF00BF297B6A7B41EA022108460F
:100E600000F0010111B10120A0750EE00020A07575
:100E70000BE02888A188884207D1A06928B16A8937
:100E800005F10C012046A369984770BD0246002178
:100E900004E0505C08B101207047491C0629F8D3D2
:100EA0000020F9E7014600BF0748007800F0040081
:100EB00008B90820704700BF09B90E20FAE70348B7
:100EC000407808600020F5E72C210020002A00204F
:100ED0000149086070470000401501400148006862
:100EE000704700000415014010B504460348046033
:100EF00006211120FBF74EFF10BD00000815014030
:100F000010B54FF480300A4908600A49C1F804035B
:100F10001120FBF71BFF1120FBF724FF01200549DF
:100F200008602F20FBF776F901200349087010BDF7
:100F300044130140001001405021002010B5112041
:100F4000012181400E4A430942F8231000BF4FF4AB
:100F500080300C4908600C49C1F808030120486042
:100F60002F20FBF757F90120074988600020074927
:100F700008602F20FBF74EF900200549087010BDCE
:100F800080E100E048130140001001403C210020B6
:100F90005021002010B51048C07D40B94FF4847135
:100FA0000E48FFF7E4FD00BF0D48006810BD4FF488
:100FB00084710A48FFF7DBFD00BF09480068C0B232
:100FC0000549C968044A527E88540348407E401C43
:100FD0000149487600BFE9E7E029002000200040F1
:100FE0001825004030B58FB004460D46002007900C
:100FF00000BF9DF81C0020F00F00401C8DF81C0065
:101000009DF81C0020F0F00010308DF81C0000BF8F
:1010100000BF9DF81D0020F00F00401C8DF81D0042
:101020009DF81D0020F0F00010308DF81D0000BF6D
:101030009DF81E0020F00600801C8DF81E001C216B
:1010400008A8FBF78AF99DF8200020F01000103066
:101050008DF82000002009900B900C9007A80D90AF
:1010600000200E9020788DF806000320ADF80400D3
:101070000020009000BF9DF8000020F00F00401CF1
:101080008DF800009DF8000020F0F00010308DF881
:10109000000000BF00BF9DF8010020F00F00401CC1
:1010A0008DF801009DF8010020F0F00010308DF85F
:1010B000010000BF9DF8020020F00600801C8DF8A2
:1010C00002009DF8020020F008008DF802009DF853
:1010D000020020F010008DF802009DF8020020F0C0
:1010E0000100401C8DF80200142102A8FBF735F91D
:1010F00001A80290CDF80CD00120ADF8100000201E
:10110000ADF812001420ADF81400608804F10C034F
:1011100002AA08A9A2DF0FB030BD00007FB50446C7
:101120000D4601208DF800008DF808400195034818
:1011300001684268684690477FBD0000E0290020B2
:1011400010B54FF492710648FFF711FD4FF484710A
:101150000348FFF70CFD00210148FFF71FFD10BDFC
:101160000020004008B501460448009000988842DD
:1011700001D0002008BD0020FCE7000080200020F6
:1011800010B501460846202808DA012282402C4B7F
:101190001A400AB101220EE000220CE0402809DAD0
:1011A000A0F12002012303FA02F20AB1012202E0B7
:1011B000002200E0012212B942F2010010BD0A46ED
:1011C000002A06DA1F4B02F00F04241F1B5D5B0987
:1011D00002E01D4B9B5C5B091846082801D30022E6
:1011E00009E028B1012803D0042801D0052801D145
:1011F000002200E0012212B942F20200DEE71348A9
:10120000806868B14809114A52F8200001F01F03B4
:1012100001229A4010434A090C4B43F822000CE08B
:1012200000BF01F01F02012090404A09920002F124
:10123000E022C2F8000100BF00BF0020BEE70000AE
:10124000FC06FFBC18ED00E000E400E05C2B002091
:1012500030B504461088C01C984201D90C2030BD1E
:101260000220158848551088401C108011201588D0
:1012700048551088401C108010880C541088401C61
:1012800010800020EBE72DE9F04707460E46144694
:101290009A46B86A10B90720BDE8F0874FF00008F9
:1012A00036E008EB4801B86A00EB8105A88800F138
:1012B0000209B9F1FE0F01D90C20EDE709F1010097
:1012C000218870542088401C20801620218870546A
:1012D0002088401C208022889119288800F090FDE9
:1012E000218808442080A88800280DDDA86808B956
:1012F0000720D1E7AA8823889819A968FBF714F872
:101300002088A9880844208008F1010000F0FF0827
:1013100097F82C004045C4DC0020BDE738B500201C
:1013200000900848009069460748FDF78DFA04468A
:1013300000BF254625B100BF2846FCF7E7FC00BFEB
:1013400000BF38BD050C02008821002070B50020C8
:10135000FDF750FC044600BF254625B100BF2846D6
:10136000FCF7D4FC00BF00BFFDF79AFB044600BFAA
:10137000254625B100BF2846FCF7C8FC00BF00BFCA
:101380003CDF044600BF254625B100BF2846FCF7D8
:10139000BDFC00BF00BF70BD014600BF09B90E20F3
:1013A000704700BF014801600020F9E76C21002070
:1013B0007CB50446044800900098019001A920469D
:1013C00060DF054628467CBD8020002070B50546BC
:1013D0000E46144614212046FAF7BFFF0120208054
:1013E000002121610020207326726572607A08B1A5
:1013F0000121A172002070BD70B504460D4616464D
:10140000324629462046FCF75FFC70BD2DE9F041CD
:1014100080460C4616461F4614B90720BDE8F081E9
:10142000204600F0030109B9012100E0002109B9BB
:101430000720F3E709480460094806800948076067
:101440000949404610DF05460DB12846E6E7012070
:10145000064908701620FFF793FEDFE7642100209D
:10146000682100205C210020F91302006021002087
:101470000146C87808B1072070470020FCE700004B
:1014800010B504460D48007888B90D48007810B1B1
:1014900001280AD104E0FBF751FA0849087005E079
:1014A000FBF706FA0549087000E000BF04E00348B6
:1014B0000078401E0149087010BD00008720002000
:1014C000862000200246501A20F07F40704700001E
:1014D00070B504460B48006878B10A4AD4E90501A2
:1014E00012689047054600BF2E4626B100BF304621
:1014F000FCF70CFC00BF00BF02E0D4E905108847F0
:1015000070BD00004C21002070B500BF0023104AC0
:1015100005211846FCF758FC054600BF2E4626B1AB
:1015200000BF3046FCF7F2FB00BF00BF00BF094A16
:1015300001210948FCF72AFC044600BF254625B1D5
:1015400000BF2846FCF7E2FB00BF00BF70BD0000F3
:101550002024002081140200387302002DE9FC4190
:10156000002001900F4804680F4807686846FDF79F
:10157000FFFF0546FEF790FC06462DB101AA214665
:101580000098FEF771F901260198FEF7D1FC00B131
:10159000012616B13846FDF741FE002003490870C8
:1015A000BDE8FC813C210020382100205121002091
:1015B00010B51420FBF7E2FB10BD000010B5184970
:1015C000096811B91649086028E0154A01681268CF
:1015D000126891420DD81249096809680268891A8F
:1015E0000F4A126811600E490968C1610C49086010
:1015F00014E002680A4C2368216803E00C68121B9F
:101600000B46C96911B10C689442F7D311B10C684B
:10161000A41A0C600260C161D86100BF10BD000057
:101620003821002030B50246154C2168084604E0F8
:10163000904200D103E00146C0690028F8D100BF04
:1016400000B930BD814210D10D4C2468E4690C4DC5
:101650002C602C46246844B901240A4DAC60002457
:10166000094D2C600124094D2C700368C469CC61BC
:10167000C86910B104681C44046000BFE1E70000C1
:1016800038210020001001403C2100205121002081
:1016900070B500224FF4A47107480068FCF7F0FB16
:1016A000044600BF254625B100BF2846FCF72EFBA7
:1016B00000BF00BF70BD0000387302002DE9F84381
:1016C00005460E4617469846DDF8209011490968F0
:1016D00001EBC500694600F00DFC044614B9042076
:1016E000BDE8F883012020706660FFF7F7FBA0607B
:1016F000E760C4F81080C4F814900649096801EB4B
:10170000C5009DF8001000F00DFCFFF751FF002010
:10171000E6E7000034210020F8B504460E460D49E6
:10172000096801EBC400694600F0E4FB05460DB909
:101730000420F8BD022028706E600649096801EB9C
:10174000C4009DF8001000F0EDFBFFF731FF002012
:10175000EFE70000342100202DE9F0411F48006828
:10176000002838D00027FFF7B9FB80461C480168E5
:101770004046FFF7A7FE06461848056810E02868AF
:10178000B04200D90EE02868361A286807442C4673
:10179000ED69207C20B1002020742046FFF798FEE0
:1017A000002DECD100BF0F4800780F49097888421E
:1017B00009D10D480078401CC0B20B4908700228BE
:1017C00001D10020087009480749097840F82170C4
:1017D000FFF7EEFE00BFBDE8F081000038210020D9
:1017E0003C210020482100204921002040210020E8
:1017F00010B51120FBF7C2FA10BD70B504461D46A6
:1018000010881230A84201D90C2070BD1120168812
:1018100088551088401C1080102016888855108824
:10182000401C10800F2307E0E05C16888855581E86
:1018300043B21088401C1080002BF5DA0020E4E74A
:1018400010B54FF48E710948FFF791F90848806888
:101850000749898A445C0648808A401C044988827A
:1018600020460449086000BF10BD00000020004071
:10187000E02900201C25004030B58FB004460D46FD
:101880001C2108A8FAF769FD9DF8200020F0080047
:1018900008308DF820009DF8200020F00400001D85
:1018A0008DF82000002009900B900C900D900E9068
:1018B00020788DF80A000220ADF808000020019081
:1018C00000BF9DF8040020F00F00401C8DF80400BC
:1018D0009DF8040020F0F00010308DF8040000BFE7
:1018E00000BF9DF8050020F00F00401C8DF805009A
:1018F0009DF8050020F0F00010308DF8050000BFC5
:101900009DF8060020F00600801C8DF806009DF86A
:10191000060020F008008DF806009DF8060020F073
:1019200010008DF806009DF8060020F00100401C14
:101930008DF80600142103A8FAF70FFD02A8039002
:1019400001A804900120ADF814000020ADF81600A5
:101950001420ADF818006088231D03AA08A9A2DF8F
:101960000FB030BD1FB5044600208DF800008DF883
:1019700008400648806801900020044988750846A0
:1019800001684268684690471FBD0000E0290020BA
:1019900030B504461088C01C984201D90C2030BDD7
:1019A0000220158848551088401C10800A20158890
:1019B00048551088401C108015884C551088401CD4
:1019C00010800020EBE7000070B50546287820B1B4
:1019D000012834D0022838D12BE01D491D4A127845
:1019E0008818FCF793FA1B480078401C19490870C6
:1019F00008460078401E1649085C0A2803D015489E
:101A00000078142814DB1348027811491248FCF7B7
:101A100086FF0446082C08D000BF264626B100BF2A
:101A20003046FCF773F900BF00BF00200949087079
:101A30000CE000BF6868FCF769F900BF06E000BF72
:101A40006868FCF763F900BF00E000BF00BF70BD2D
:101A50000C22002096200020882100207CB504461E
:101A60000E462078012827D1606801782648FCF7C7
:101A70007CF9054645B101208DF8000001956846C6
:101A80002249096888470BE01F48FDF725FF012818
:101A900006D100208DF8000068461C490968884777
:101AA0001948FDF719FF18498988884203D8012190
:101AB0001748FEF78DFD25E0207802280CD18DF81F
:101AC0000000E068019001211148FEF781FD6846A1
